:020000040000FA
:100000003F28FF00240016142000911D0428200022
:1000100091117F0824009100240014180C2824005A
:10002000161B01347F0824009100240014181528A1
:100030002400161B02340034FF0024001614200094
:10004000911D1F28200091117F0824009100240099
:10005000141827282400161B0134FF0803193E2812
:100060007F088400000824009100FF0AFF03240099
:10007000141837282400161F2D280234003463007A
:020080003F2817
:00000001FF
