:020000040000FA
:10000000CC28C03024009400083095009601970158
:100010000930920095160800FF007B207F08A5207C
:10002000031C1428812001347F08A520031C1A28F2
:1000300081200234812000342000A4007B20200095
:100040002208A520031C2628812001342000230833
:10005000A520031C2D288120013420002408A52080
:10006000031C34288120023481200034FF007B20CF
:100070007F08A520031C3E2881200134FF080319B6
:100080004C28FF0385017F0884000008A520031C7D
:100090003E28FF0A81200234812000347B207F0823
:1000A000A520031C552881200134AD20FF008501C7
:1000B0007F0884007F088000922081200034FF00A8
:1000C0007B207F08A520031C672881200134FF08BE
:1000D00003197828FF03AD20FF0085017F08840005
:1000E0007F088000FF0AFF08031967288920672816
:1000F000922081200034240016142000911D7D28B8
:100100000800240016152000911D8328200091115D
:1001100008002400961216162000911D8C2820003D
:10012000911108002400961616162000911D95289E
:100130002000911108002000911D9B2820009111A2
:1001400003102400161B031408002000A500250836
:1001500024009100200091119B2824009615200076
:10016000911DAF28200091112400110808003A3099
:100170002000A2002430A30020301C203A302000B0
:10018000A2002530A30008301C203A302000A20035
:100190002E30A30010301C28683021009900203038
:1001A0008C0023008C010120B720640020000C1E6D
:1001B000DB280C12DD2820000C16B7202000A0013F
:1001C0002000200A0319D528A1012000210A0319C3
:0E01D000EC280000A10AE5282000A00AE02883
:020000040001F9
:04000E00BC3FFF1ED6
:00000001FF
