:020000040000FA
:100000006928C030240094000830950096019701BB
:1000100009309200951608002000A3005920200006
:100020002208240091002000911D13282000911126
:100030002400161F1D2861200134200023082400FD
:1000400091002000911D2128200091112400161FED
:100050002B286120023461200034FF002400161494
:100060002000911D3028200091117F08240091006C
:100070002000911D3828200091112400161F4228CD
:1000800061200134FF080319572885017F08840087
:10009000000824009100FF0AFF032000911D4D2855
:1000A000200091112400161F422861200234612093
:1000B0000034240016142000911D5B2820009111AB
:1000C0000800240016152000911D632820009111BE
:1000D000080068302100990001203A302000A20079
:1000E00055300C202000A0012000200A03196D28A3
:1000F000A1012000210A031980280000A10A792803
:060100002000A00A742893
:020000040001F9
:04000E00BC3FFF1ED6
:00000001FF
