:020000040000FA
:100000008B28C03024009400083095009601970199
:1000100009309200951608002000A3007B202000E4
:100020002208240091002000911D13282000911126
:100030002400161F1D2883200134200023082400DB
:1000400091002000911D2128200091112400161FED
:100050002B288320023483200034FF002400161450
:100060002000911D3028200091117F08240091006C
:100070002000911D3828200091112400161F4228CD
:1000800083200134FF080319572885017F08840065
:10009000000824009100FF0AFF032000911D4D2855
:1000A000200091112400161F42288320023483204F
:1000B00000347B207F08240091002000911D5D28E2
:1000C000200091112400161F67288320013424008A
:1000D00096152000911D69282000911185017F0847
:1000E0008400240011088000161F78288320023421
:1000F000832000340034240016142000911D7D2834
:10010000200091110800240016152000911D85285B
:1001100020009111080068302100990001203A3038
:100120002000A20055300C202000A0012000200A51
:1001300003198F28A1012000210A0319A228000019
:0A014000A10A9B282000A00A9628BF
:020000040001F9
:04000E00BC3FFF1ED6
:00000001FF
