:020000040000FA
:10000000A028C03024009400083095009601970184
:1000100009309200951608002000A30064202000FB
:1000200022089020031C16286C200134200023088D
:100030009020031C1D286C2002346C200034FF002B
:1000400064207F089020031C27286C200134FF08BF
:1000500003193528FF0385017F08840000089020DC
:10006000031C2728FF0A6C2002346C200034642013
:100070007F089020031C3E286C2001349620FF004E
:1000800085017F0884007F0880007D206C2000347B
:10009000FF0064207F089020031C50286C2001344E
:1000A000FF0803196128FF039620FF0085017F08E0
:1000B00084007F088000FF0AFF080319502874207D
:1000C00050287D206C200034240016142000911D3F
:1000D0006628200091110800240016152000911DAB
:1000E0006E28200091110800240096121616200098
:1000F000911D7728200091110800240096161616ED
:100100002000911D80282000911108002000911DE1
:1001100086282000911103102400161B03140800E8
:100120002000A400240824009100862824009615AD
:100130002000911D9828200091112400110808002A
:1001400068302100990001203A302000A20055308B
:100150000C202000A0012000200A0319A428A101DE
:100160002000210A0319B7280000A10AB0282000A6
:04017000A00AAB280E
:020000040001F9
:04000E00BC3FFF1ED6
:00000001FF
